:060000000A128A1100291A
:100200000F21312138213F308700A00103138312D1
:100210000618452186184C2153216221082903170D
:1002200083168801890103138316051085100511B3
:10023000851103138316061486140313831687018E
:1002400003138316081088100811881103138316EE
:100250000910031383128501860187018801890132
:100260000800031383160F140F178F120F120800C4
:1002700003138316811281110115811401140313D4
:1002800083129E3081000B11080006184529A00A30
:10029000200800228700080086184C29A0032008A7
:1002A0000022870008000B1D53295C21850A0508E0
:1002B0000A3C0319880A0800031383129E30810048
:1002C0000B110800200808020319672108008801A3
:0402D000890A08008F
:100400008A018A140F3982073F3406345B344F3433
:1004100066346D347D3407347F346F3477347C3404
:0804200039345E347934713483
:04400E00C430FF3F7C
:00000001FF
